{"abi":[{"inputs":[],"stateMutability":"nonpayable","type":"constructor","name":"constructor"},{"inputs":[{"internalType":"address","name":"beneficiary","type":"address"},{"internalType":"uint256","name":"timeUntilRelease","type":"uint256"}],"name":"addBeneficiary","outputs":[],"stateMutability":"payable","type":"function"},{"inputs":[{"internalType":"address","name":"","type":"address"}],"name":"beneficiaries","outputs":[{"internalType":"uint256","name":"amount","type":"uint256"},{"internalType":"uint256","name":"releaseDate","type":"uint256"},{"internalType":"bool","name":"paid","type":"bool"}],"stateMutability":"view","type":"function"},{"inputs":[],"name":"grantor","outputs":[{"internalType":"address","name":"","type":"address"}],"stateMutability":"view","type":"function"},{"inputs":[],"name":"withdrawFunds","outputs":[],"stateMutability":"nonpayable","type":"function"}],"bytecode":"608060405234801561001057600080fd5b50600180546001600160a01b031916331790556104c1806100326000396000f3fe60806040526004361061003f5760003560e01c8063015677391461004457806324600fc3146100a557806396074e70146100bc578063bab253b3146100cf575b600080fd5b34801561005057600080fd5b5061008361005f366004610419565b60006020819052908152604090208054600182015460029092015490919060ff1683565b6040805193845260208401929092521515908201526060015b60405180910390f35b3480156100b157600080fd5b506100ba610107565b005b6100ba6100ca36600461043b565b61028f565b3480156100db57600080fd5b506001546100ef906001600160a01b031681565b6040516001600160a01b03909116815260200161009c565b33600090815260208190526040902060018101544210156101825760405162461bcd60e51b815260206004820152602a60248201527f596f752063616e277420776974686472617720756e74696c20796f75722072656044820152696c65617365206461746560b01b60648201526084015b60405180910390fd5b80546101ee5760405162461bcd60e51b815260206004820152603560248201527f4f6e6c7920612062656e65666963696172792063616e20776974686472617720604482015274199d5b991cc8199c9bdb481d1a1a5cc81d1c9d5cdd605a1b6064820152608401610179565b600281015460ff161561024f5760405162461bcd60e51b815260206004820152602360248201527f596f7527766520616c726561647920776974686472657720796f75722066756e60448201526264732160e81b6064820152608401610179565b60028101805460ff191660011790558054604051339180156108fc02916000818181858888f1935050505015801561028b573d6000803e3d6000fd5b5050565b6001546001600160a01b031633146103075760405162461bcd60e51b815260206004820152603560248201527f4f6e6c7920746865206772616e746f72206f6620746869732074727573742063604482015274616e2061646420612062656e65666963696172792160581b6064820152608401610179565b6001600160a01b03821660009081526020819052604090205415610395576040805162461bcd60e51b81526020600482015260248101919091527f596f7527766520616c726561647920616464656420746869732062656e65666960448201527f63696172792e2e2e757365206120646966666572656e742061646472657373216064820152608401610179565b604051806060016040528034815260200182426103b29190610465565b8152600060209182018190526001600160a01b03949094168452838152604093849020825181559082015160018201559201516002909201805460ff19169215159290921790915550565b80356001600160a01b038116811461041457600080fd5b919050565b60006020828403121561042b57600080fd5b610434826103fd565b9392505050565b6000806040838503121561044e57600080fd5b610457836103fd565b946020939093013593505050565b6000821982111561048657634e487b7160e01b600052601160045260246000fd5b50019056fea26469706673582212207cbbd9763e5356620af837500320b15b33dcbadff41843c0696327a60b13677664736f6c634300080a0033","bytecodeSha1":"2102da228bac229f44ec295a9019718f63b08c17","compiler":{"evm_version":"istanbul","optimizer":{"enabled":true,"runs":200},"version":"0.8.10+commit.fc410830"},"contractName":"Trust","language":"Solidity","natspec":{"kind":"dev","methods":{},"version":1},"opcodes":"PUSH1 0x80 PUSH1 0x40 MSTORE PUSH1 0x4 CALLDATASIZE LT PUSH2 0x3F JUMPI PUSH1 0x0 CALLDATALOAD PUSH1 0xE0 SHR DUP1 PUSH4 0x1567739 EQ PUSH2 0x44 JUMPI DUP1 PUSH4 0x24600FC3 EQ PUSH2 0xA5 JUMPI DUP1 PUSH4 0x96074E70 EQ PUSH2 0xBC JUMPI DUP1 PUSH4 0xBAB253B3 EQ PUSH2 0xCF JUMPI JUMPDEST PUSH1 0x0 DUP1 REVERT JUMPDEST CALLVALUE DUP1 ISZERO PUSH2 0x50 JUMPI PUSH1 0x0 DUP1 REVERT JUMPDEST POP PUSH2 0x83 PUSH2 0x5F CALLDATASIZE PUSH1 0x4 PUSH2 0x419 JUMP JUMPDEST PUSH1 0x0 PUSH1 0x20 DUP2 SWAP1 MSTORE SWAP1 DUP2 MSTORE PUSH1 0x40 SWAP1 KECCAK256 DUP1 SLOAD PUSH1 0x1 DUP3 ADD SLOAD PUSH1 0x2 SWAP1 SWAP3 ADD SLOAD SWAP1 SWAP2 SWAP1 PUSH1 0xFF AND DUP4 JUMP JUMPDEST PUSH1 0x40 DUP1 MLOAD SWAP4 DUP5 MSTORE PUSH1 0x20 DUP5 ADD SWAP3 SWAP1 SWAP3 MSTORE ISZERO ISZERO SWAP1 DUP3 ADD MSTORE PUSH1 0x60 ADD JUMPDEST PUSH1 0x40 MLOAD DUP1 SWAP2 SUB SWAP1 RETURN JUMPDEST CALLVALUE DUP1 ISZERO PUSH2 0xB1 JUMPI PUSH1 0x0 DUP1 REVERT JUMPDEST POP PUSH2 0xBA PUSH2 0x107 JUMP JUMPDEST STOP JUMPDEST PUSH2 0xBA PUSH2 0xCA CALLDATASIZE PUSH1 0x4 PUSH2 0x43B JUMP JUMPDEST PUSH2 0x28F JUMP JUMPDEST CALLVALUE DUP1 ISZERO PUSH2 0xDB JUMPI PUSH1 0x0 DUP1 REVERT JUMPDEST POP PUSH1 0x1 SLOAD PUSH2 0xEF SWAP1 PUSH1 0x1 PUSH1 0x1 PUSH1 0xA0 SHL SUB AND DUP2 JUMP JUMPDEST PUSH1 0x40 MLOAD PUSH1 0x1 PUSH1 0x1 PUSH1 0xA0 SHL SUB SWAP1 SWAP2 AND DUP2 MSTORE PUSH1 0x20 ADD PUSH2 0x9C JUMP JUMPDEST CALLER PUSH1 0x0 SWAP1 DUP2 MSTORE PUSH1 0x20 DUP2 SWAP1 MSTORE PUSH1 0x40 SWAP1 KECCAK256 PUSH1 0x1 DUP2 ADD SLOAD TIMESTAMP LT ISZERO PUSH2 0x182 JUMPI PUSH1 0x40 MLOAD PUSH3 0x461BCD PUSH1 0xE5 SHL DUP2 MSTORE PUSH1 0x20 PUSH1 0x4 DUP3 ADD MSTORE PUSH1 0x2A PUSH1 0x24 DUP3 ADD MSTORE PUSH32 0x596F752063616E277420776974686472617720756E74696C20796F7572207265 PUSH1 0x44 DUP3 ADD MSTORE PUSH10 0x6C656173652064617465 PUSH1 0xB0 SHL PUSH1 0x64 DUP3 ADD MSTORE PUSH1 0x84 ADD JUMPDEST PUSH1 0x40 MLOAD DUP1 SWAP2 SUB SWAP1 REVERT JUMPDEST DUP1 SLOAD PUSH2 0x1EE JUMPI PUSH1 0x40 MLOAD PUSH3 0x461BCD PUSH1 0xE5 SHL DUP2 MSTORE PUSH1 0x20 PUSH1 0x4 DUP3 ADD MSTORE PUSH1 0x35 PUSH1 0x24 DUP3 ADD MSTORE PUSH32 0x4F6E6C7920612062656E65666963696172792063616E20776974686472617720 PUSH1 0x44 DUP3 ADD MSTORE PUSH21 0x199D5B991CC8199C9BDB481D1A1A5CC81D1C9D5CDD PUSH1 0x5A SHL PUSH1 0x64 DUP3 ADD MSTORE PUSH1 0x84 ADD PUSH2 0x179 JUMP JUMPDEST PUSH1 0x2 DUP2 ADD SLOAD PUSH1 0xFF AND ISZERO PUSH2 0x24F JUMPI PUSH1 0x40 MLOAD PUSH3 0x461BCD PUSH1 0xE5 SHL DUP2 MSTORE PUSH1 0x20 PUSH1 0x4 DUP3 ADD MSTORE PUSH1 0x23 PUSH1 0x24 DUP3 ADD MSTORE PUSH32 0x596F7527766520616C726561647920776974686472657720796F75722066756E PUSH1 0x44 DUP3 ADD MSTORE PUSH3 0x647321 PUSH1 0xE8 SHL PUSH1 0x64 DUP3 ADD MSTORE PUSH1 0x84 ADD PUSH2 0x179 JUMP JUMPDEST PUSH1 0x2 DUP2 ADD DUP1 SLOAD PUSH1 0xFF NOT AND PUSH1 0x1 OR SWAP1 SSTORE DUP1 SLOAD PUSH1 0x40 MLOAD CALLER SWAP2 DUP1 ISZERO PUSH2 0x8FC MUL SWAP2 PUSH1 0x0 DUP2 DUP2 DUP2 DUP6 DUP9 DUP9 CALL SWAP4 POP POP POP POP ISZERO DUP1 ISZERO PUSH2 0x28B JUMPI RETURNDATASIZE PUSH1 0x0 DUP1 RETURNDATACOPY RETURNDATASIZE PUSH1 0x0 REVERT JUMPDEST POP POP JUMP JUMPDEST PUSH1 0x1 SLOAD PUSH1 0x1 PUSH1 0x1 PUSH1 0xA0 SHL SUB AND CALLER EQ PUSH2 0x307 JUMPI PUSH1 0x40 MLOAD PUSH3 0x461BCD PUSH1 0xE5 SHL DUP2 MSTORE PUSH1 0x20 PUSH1 0x4 DUP3 ADD MSTORE PUSH1 0x35 PUSH1 0x24 DUP3 ADD MSTORE PUSH32 0x4F6E6C7920746865206772616E746F72206F6620746869732074727573742063 PUSH1 0x44 DUP3 ADD MSTORE PUSH21 0x616E2061646420612062656E656669636961727921 PUSH1 0x58 SHL PUSH1 0x64 DUP3 ADD MSTORE PUSH1 0x84 ADD PUSH2 0x179 JUMP JUMPDEST PUSH1 0x1 PUSH1 0x1 PUSH1 0xA0 SHL SUB DUP3 AND PUSH1 0x0 SWAP1 DUP2 MSTORE PUSH1 0x20 DUP2 SWAP1 MSTORE PUSH1 0x40 SWAP1 KECCAK256 SLOAD ISZERO PUSH2 0x395 JUMPI PUSH1 0x40 DUP1 MLOAD PUSH3 0x461BCD PUSH1 0xE5 SHL DUP2 MSTORE PUSH1 0x20 PUSH1 0x4 DUP3 ADD MSTORE PUSH1 0x24 DUP2 ADD SWAP2 SWAP1 SWAP2 MSTORE PUSH32 0x596F7527766520616C726561647920616464656420746869732062656E656669 PUSH1 0x44 DUP3 ADD MSTORE PUSH32 0x63696172792E2E2E757365206120646966666572656E74206164647265737321 PUSH1 0x64 DUP3 ADD MSTORE PUSH1 0x84 ADD PUSH2 0x179 JUMP JUMPDEST PUSH1 0x40 MLOAD DUP1 PUSH1 0x60 ADD PUSH1 0x40 MSTORE DUP1 CALLVALUE DUP2 MSTORE PUSH1 0x20 ADD DUP3 TIMESTAMP PUSH2 0x3B2 SWAP2 SWAP1 PUSH2 0x465 JUMP JUMPDEST DUP2 MSTORE PUSH1 0x0 PUSH1 0x20 SWAP2 DUP3 ADD DUP2 SWAP1 MSTORE PUSH1 0x1 PUSH1 0x1 PUSH1 0xA0 SHL SUB SWAP5 SWAP1 SWAP5 AND DUP5 MSTORE DUP4 DUP2 MSTORE PUSH1 0x40 SWAP4 DUP5 SWAP1 KECCAK256 DUP3 MLOAD DUP2 SSTORE SWAP1 DUP3 ADD MLOAD PUSH1 0x1 DUP3 ADD SSTORE SWAP3 ADD MLOAD PUSH1 0x2 SWAP1 SWAP3 ADD DUP1 SLOAD PUSH1 0xFF NOT AND SWAP3 ISZERO ISZERO SWAP3 SWAP1 SWAP3 OR SWAP1 SWAP2 SSTORE POP JUMP JUMPDEST DUP1 CALLDATALOAD PUSH1 0x1 PUSH1 0x1 PUSH1 0xA0 SHL SUB DUP2 AND DUP2 EQ PUSH2 0x414 JUMPI PUSH1 0x0 DUP1 REVERT JUMPDEST SWAP2 SWAP1 POP JUMP JUMPDEST PUSH1 0x0 PUSH1 0x20 DUP3 DUP5 SUB SLT ISZERO PUSH2 0x42B JUMPI PUSH1 0x0 DUP1 REVERT JUMPDEST PUSH2 0x434 DUP3 PUSH2 0x3FD JUMP JUMPDEST SWAP4 SWAP3 POP POP POP JUMP JUMPDEST PUSH1 0x0 DUP1 PUSH1 0x40 DUP4 DUP6 SUB SLT ISZERO PUSH2 0x44E JUMPI PUSH1 0x0 DUP1 REVERT JUMPDEST PUSH2 0x457 DUP4 PUSH2 0x3FD JUMP JUMPDEST SWAP5 PUSH1 0x20 SWAP4 SWAP1 SWAP4 ADD CALLDATALOAD SWAP4 POP POP POP JUMP JUMPDEST PUSH1 0x0 DUP3 NOT DUP3 GT ISZERO PUSH2 0x486 JUMPI PUSH4 0x4E487B71 PUSH1 0xE0 SHL PUSH1 0x0 MSTORE PUSH1 0x11 PUSH1 0x4 MSTORE PUSH1 0x24 PUSH1 0x0 REVERT JUMPDEST POP ADD SWAP1 JUMP INVALID LOG2 PUSH5 0x6970667358 0x22 SLT KECCAK256 PUSH29 0xBBD9763E5356620AF837500320B15B33DCBADFF41843C0696327A60B13 PUSH8 0x7664736F6C634300 ADDMOD EXP STOP CALLER ","sha1":"79b26f8c2a44b52ef3202744f0714c7b3d52f9e7","source":"// SPDX-License-Identifier: MIT\n\npragma solidity ^0.8.0;\n\ncontract Trust {\n    struct Beneficiary {\n        uint256 amount;\n        uint256 releaseDate;\n        bool paid;\n    }\n    mapping(address => Beneficiary) public beneficiaries;\n    address public grantor;\n\n    constructor() {\n        grantor = msg.sender;\n    }\n\n    function addBeneficiary(address beneficiary, uint256 timeUntilRelease)\n        external\n        payable\n    {\n        require(\n            msg.sender == grantor,\n            \"Only the grantor of this trust can add a beneficiary!\"\n        );\n        require(\n            beneficiaries[beneficiary].amount == 0,\n            \"You've already added this beneficiary...use a different address!\"\n        );\n        beneficiaries[beneficiary] = Beneficiary(\n            msg.value,\n            block.timestamp + timeUntilRelease,\n            false\n        );\n    }\n\n    function withdrawFunds() external {\n        Beneficiary storage beneficiary = beneficiaries[msg.sender];\n        require(\n            beneficiary.releaseDate <= block.timestamp,\n            \"You can't withdraw until your release date\"\n        );\n        require(\n            beneficiary.amount > 0,\n            \"Only a beneficiary can withdraw funds from this trust\"\n        );\n        require(\n            beneficiary.paid == false,\n            \"You've already withdrew your funds!\"\n        );\n        beneficiary.paid = true;\n        payable(msg.sender).transfer(beneficiary.amount);\n    }\n}\n","sourcePath":"contracts/Trust.sol","type":"contract","deployment":{"address":"0x339B281eF52db081b83Ea116df3B799F3B5738A2","chainid":"42","blockHeight":30808764}}