{
  "abi": [
    {
      "inputs": [],
      "stateMutability": "nonpayable",
      "type": "constructor"
    },
    {
      "inputs": [
        {
          "internalType": "address",
          "name": "beneficiary",
          "type": "address"
        },
        {
          "internalType": "uint256",
          "name": "timeUntilRelease",
          "type": "uint256"
        }
      ],
      "name": "addBeneficiary",
      "outputs": [],
      "stateMutability": "payable",
      "type": "function"
    },
    {
      "inputs": [
        {
          "internalType": "address",
          "name": "",
          "type": "address"
        }
      ],
      "name": "beneficiaries",
      "outputs": [
        {
          "internalType": "uint256",
          "name": "amount",
          "type": "uint256"
        },
        {
          "internalType": "uint256",
          "name": "releaseDate",
          "type": "uint256"
        },
        {
          "internalType": "bool",
          "name": "paid",
          "type": "bool"
        }
      ],
      "stateMutability": "view",
      "type": "function"
    },
    {
      "inputs": [],
      "name": "grantor",
      "outputs": [
        {
          "internalType": "address",
          "name": "",
          "type": "address"
        }
      ],
      "stateMutability": "view",
      "type": "function"
    },
    {
      "inputs": [
        {
          "internalType": "uint256",
          "name": "_amount",
          "type": "uint256"
        }
      ],
      "name": "withdrawFunds",
      "outputs": [],
      "stateMutability": "nonpayable",
      "type": "function"
    }
  ],
  "bytecode": "608060405234801561001057600080fd5b50600180546001600160a01b03191633179055610594806100326000396000f3fe60806040526004361061003f5760003560e01c80630156773914610044578063155dd5ee146100a557806396074e70146100c7578063bab253b3146100da575b600080fd5b34801561005057600080fd5b5061008361005f3660046104b4565b60006020819052908152604090208054600182015460029092015490919060ff1683565b6040805193845260208401929092521515908201526060015b60405180910390f35b3480156100b157600080fd5b506100c56100c03660046104d6565b610112565b005b6100c56100d53660046104ef565b61032a565b3480156100e657600080fd5b506001546100fa906001600160a01b031681565b6040516001600160a01b03909116815260200161009c565b336000908152602081905260409020600181015442101561018e5760405162461bcd60e51b815260206004820152602b60248201527f596f752063616e277420776974686472617720756e74696c20796f757220726560448201526a3632b0b9b2903230ba329760a91b60648201526084015b60405180910390fd5b805482106101fb5760405162461bcd60e51b815260206004820152603460248201527f596f752063616e2774207769746864726177206d6f7265207468616e20796f7560448201527339103932b6b0b4b734b733903130b630b731b29760611b6064820152608401610185565b80546102575760405162461bcd60e51b815260206004820152602560248201527f54686520616d6f756e7420746f20776974687261772063616e6e6f74206265206044820152643d32b9379760d91b6064820152608401610185565b600281015460ff16156102b85760405162461bcd60e51b815260206004820152602360248201527f596f7527766520616c726561647920776974686472657720796f75722066756e60448201526264732160e81b6064820152608401610185565b818160000160008282546102cc919061052f565b909155505080546102eb5760028101805460ff191660011790556102f8565b60028101805460ff191690555b8054604051339180156108fc02916000818181858888f19350505050158015610325573d6000803e3d6000fd5b505050565b6001546001600160a01b031633146103a25760405162461bcd60e51b815260206004820152603560248201527f4f6e6c7920746865206772616e746f72206f6620746869732074727573742063604482015274616e2061646420612062656e65666963696172792160581b6064820152608401610185565b6001600160a01b03821660009081526020819052604090205415610430576040805162461bcd60e51b81526020600482015260248101919091527f596f7527766520616c726561647920616464656420746869732062656e65666960448201527f63696172792e2e2e757365206120646966666572656e742061646472657373216064820152608401610185565b6040518060600160405280348152602001824261044d9190610546565b8152600060209182018190526001600160a01b03949094168452838152604093849020825181559082015160018201559201516002909201805460ff19169215159290921790915550565b80356001600160a01b03811681146104af57600080fd5b919050565b6000602082840312156104c657600080fd5b6104cf82610498565b9392505050565b6000602082840312156104e857600080fd5b5035919050565b6000806040838503121561050257600080fd5b61050b83610498565b946020939093013593505050565b634e487b7160e01b600052601160045260246000fd5b60008282101561054157610541610519565b500390565b6000821982111561055957610559610519565b50019056fea2646970667358221220bb7c3aaa7fbef552fd6e6267dd3f2c3291c1a18271c869c5346a6cdf7758cef764736f6c634300080a0033",
  "bytecodeSha1": "f04c42c0a5fc99dbd4c2230c221748eb784e965b",
  "compiler": {
    "evm_version": "istanbul",
    "optimizer": {
      "enabled": true,
      "runs": 200
    },
    "version": "0.8.10+commit.fc410830"
  },
  "contractName": "Trust",
  "language": "Solidity",
  "natspec": {
    "kind": "dev",
    "methods": {},
    "version": 1
  },
  "opcodes": "PUSH1 0x80 PUSH1 0x40 MSTORE PUSH1 0x4 CALLDATASIZE LT PUSH2 0x3F JUMPI PUSH1 0x0 CALLDATALOAD PUSH1 0xE0 SHR DUP1 PUSH4 0x1567739 EQ PUSH2 0x44 JUMPI DUP1 PUSH4 0x155DD5EE EQ PUSH2 0xA5 JUMPI DUP1 PUSH4 0x96074E70 EQ PUSH2 0xC7 JUMPI DUP1 PUSH4 0xBAB253B3 EQ PUSH2 0xDA JUMPI JUMPDEST PUSH1 0x0 DUP1 REVERT JUMPDEST CALLVALUE DUP1 ISZERO PUSH2 0x50 JUMPI PUSH1 0x0 DUP1 REVERT JUMPDEST POP PUSH2 0x83 PUSH2 0x5F CALLDATASIZE PUSH1 0x4 PUSH2 0x4B4 JUMP JUMPDEST PUSH1 0x0 PUSH1 0x20 DUP2 SWAP1 MSTORE SWAP1 DUP2 MSTORE PUSH1 0x40 SWAP1 KECCAK256 DUP1 SLOAD PUSH1 0x1 DUP3 ADD SLOAD PUSH1 0x2 SWAP1 SWAP3 ADD SLOAD SWAP1 SWAP2 SWAP1 PUSH1 0xFF AND DUP4 JUMP JUMPDEST PUSH1 0x40 DUP1 MLOAD SWAP4 DUP5 MSTORE PUSH1 0x20 DUP5 ADD SWAP3 SWAP1 SWAP3 MSTORE ISZERO ISZERO SWAP1 DUP3 ADD MSTORE PUSH1 0x60 ADD JUMPDEST PUSH1 0x40 MLOAD DUP1 SWAP2 SUB SWAP1 RETURN JUMPDEST CALLVALUE DUP1 ISZERO PUSH2 0xB1 JUMPI PUSH1 0x0 DUP1 REVERT JUMPDEST POP PUSH2 0xC5 PUSH2 0xC0 CALLDATASIZE PUSH1 0x4 PUSH2 0x4D6 JUMP JUMPDEST PUSH2 0x112 JUMP JUMPDEST STOP JUMPDEST PUSH2 0xC5 PUSH2 0xD5 CALLDATASIZE PUSH1 0x4 PUSH2 0x4EF JUMP JUMPDEST PUSH2 0x32A JUMP JUMPDEST CALLVALUE DUP1 ISZERO PUSH2 0xE6 JUMPI PUSH1 0x0 DUP1 REVERT JUMPDEST POP PUSH1 0x1 SLOAD PUSH2 0xFA SWAP1 PUSH1 0x1 PUSH1 0x1 PUSH1 0xA0 SHL SUB AND DUP2 JUMP JUMPDEST PUSH1 0x40 MLOAD PUSH1 0x1 PUSH1 0x1 PUSH1 0xA0 SHL SUB SWAP1 SWAP2 AND DUP2 MSTORE PUSH1 0x20 ADD PUSH2 0x9C JUMP JUMPDEST CALLER PUSH1 0x0 SWAP1 DUP2 MSTORE PUSH1 0x20 DUP2 SWAP1 MSTORE PUSH1 0x40 SWAP1 KECCAK256 PUSH1 0x1 DUP2 ADD SLOAD TIMESTAMP LT ISZERO PUSH2 0x18E JUMPI PUSH1 0x40 MLOAD PUSH3 0x461BCD PUSH1 0xE5 SHL DUP2 MSTORE PUSH1 0x20 PUSH1 0x4 DUP3 ADD MSTORE PUSH1 0x2B PUSH1 0x24 DUP3 ADD MSTORE PUSH32 0x596F752063616E277420776974686472617720756E74696C20796F7572207265 PUSH1 0x44 DUP3 ADD MSTORE PUSH11 0x3632B0B9B2903230BA3297 PUSH1 0xA9 SHL PUSH1 0x64 DUP3 ADD MSTORE PUSH1 0x84 ADD JUMPDEST PUSH1 0x40 MLOAD DUP1 SWAP2 SUB SWAP1 REVERT JUMPDEST DUP1 SLOAD DUP3 LT PUSH2 0x1FB JUMPI PUSH1 0x40 MLOAD PUSH3 0x461BCD PUSH1 0xE5 SHL DUP2 MSTORE PUSH1 0x20 PUSH1 0x4 DUP3 ADD MSTORE PUSH1 0x34 PUSH1 0x24 DUP3 ADD MSTORE PUSH32 0x596F752063616E2774207769746864726177206D6F7265207468616E20796F75 PUSH1 0x44 DUP3 ADD MSTORE PUSH20 0x39103932B6B0B4B734B733903130B630B731B297 PUSH1 0x61 SHL PUSH1 0x64 DUP3 ADD MSTORE PUSH1 0x84 ADD PUSH2 0x185 JUMP JUMPDEST DUP1 SLOAD PUSH2 0x257 JUMPI PUSH1 0x40 MLOAD PUSH3 0x461BCD PUSH1 0xE5 SHL DUP2 MSTORE PUSH1 0x20 PUSH1 0x4 DUP3 ADD MSTORE PUSH1 0x25 PUSH1 0x24 DUP3 ADD MSTORE PUSH32 0x54686520616D6F756E7420746F20776974687261772063616E6E6F7420626520 PUSH1 0x44 DUP3 ADD MSTORE PUSH5 0x3D32B93797 PUSH1 0xD9 SHL PUSH1 0x64 DUP3 ADD MSTORE PUSH1 0x84 ADD PUSH2 0x185 JUMP JUMPDEST PUSH1 0x2 DUP2 ADD SLOAD PUSH1 0xFF AND ISZERO PUSH2 0x2B8 JUMPI PUSH1 0x40 MLOAD PUSH3 0x461BCD PUSH1 0xE5 SHL DUP2 MSTORE PUSH1 0x20 PUSH1 0x4 DUP3 ADD MSTORE PUSH1 0x23 PUSH1 0x24 DUP3 ADD MSTORE PUSH32 0x596F7527766520616C726561647920776974686472657720796F75722066756E PUSH1 0x44 DUP3 ADD MSTORE PUSH3 0x647321 PUSH1 0xE8 SHL PUSH1 0x64 DUP3 ADD MSTORE PUSH1 0x84 ADD PUSH2 0x185 JUMP JUMPDEST DUP2 DUP2 PUSH1 0x0 ADD PUSH1 0x0 DUP3 DUP3 SLOAD PUSH2 0x2CC SWAP2 SWAP1 PUSH2 0x52F JUMP JUMPDEST SWAP1 SWAP2 SSTORE POP POP DUP1 SLOAD PUSH2 0x2EB JUMPI PUSH1 0x2 DUP2 ADD DUP1 SLOAD PUSH1 0xFF NOT AND PUSH1 0x1 OR SWAP1 SSTORE PUSH2 0x2F8 JUMP JUMPDEST PUSH1 0x2 DUP2 ADD DUP1 SLOAD PUSH1 0xFF NOT AND SWAP1 SSTORE JUMPDEST DUP1 SLOAD PUSH1 0x40 MLOAD CALLER SWAP2 DUP1 ISZERO PUSH2 0x8FC MUL SWAP2 PUSH1 0x0 DUP2 DUP2 DUP2 DUP6 DUP9 DUP9 CALL SWAP4 POP POP POP POP ISZERO DUP1 ISZERO PUSH2 0x325 JUMPI RETURNDATASIZE PUSH1 0x0 DUP1 RETURNDATACOPY RETURNDATASIZE PUSH1 0x0 REVERT JUMPDEST POP POP POP JUMP JUMPDEST PUSH1 0x1 SLOAD PUSH1 0x1 PUSH1 0x1 PUSH1 0xA0 SHL SUB AND CALLER EQ PUSH2 0x3A2 JUMPI PUSH1 0x40 MLOAD PUSH3 0x461BCD PUSH1 0xE5 SHL DUP2 MSTORE PUSH1 0x20 PUSH1 0x4 DUP3 ADD MSTORE PUSH1 0x35 PUSH1 0x24 DUP3 ADD MSTORE PUSH32 0x4F6E6C7920746865206772616E746F72206F6620746869732074727573742063 PUSH1 0x44 DUP3 ADD MSTORE PUSH21 0x616E2061646420612062656E656669636961727921 PUSH1 0x58 SHL PUSH1 0x64 DUP3 ADD MSTORE PUSH1 0x84 ADD PUSH2 0x185 JUMP JUMPDEST PUSH1 0x1 PUSH1 0x1 PUSH1 0xA0 SHL SUB DUP3 AND PUSH1 0x0 SWAP1 DUP2 MSTORE PUSH1 0x20 DUP2 SWAP1 MSTORE PUSH1 0x40 SWAP1 KECCAK256 SLOAD ISZERO PUSH2 0x430 JUMPI PUSH1 0x40 DUP1 MLOAD PUSH3 0x461BCD PUSH1 0xE5 SHL DUP2 MSTORE PUSH1 0x20 PUSH1 0x4 DUP3 ADD MSTORE PUSH1 0x24 DUP2 ADD SWAP2 SWAP1 SWAP2 MSTORE PUSH32 0x596F7527766520616C726561647920616464656420746869732062656E656669 PUSH1 0x44 DUP3 ADD MSTORE PUSH32 0x63696172792E2E2E757365206120646966666572656E74206164647265737321 PUSH1 0x64 DUP3 ADD MSTORE PUSH1 0x84 ADD PUSH2 0x185 JUMP JUMPDEST PUSH1 0x40 MLOAD DUP1 PUSH1 0x60 ADD PUSH1 0x40 MSTORE DUP1 CALLVALUE DUP2 MSTORE PUSH1 0x20 ADD DUP3 TIMESTAMP PUSH2 0x44D SWAP2 SWAP1 PUSH2 0x546 JUMP JUMPDEST DUP2 MSTORE PUSH1 0x0 PUSH1 0x20 SWAP2 DUP3 ADD DUP2 SWAP1 MSTORE PUSH1 0x1 PUSH1 0x1 PUSH1 0xA0 SHL SUB SWAP5 SWAP1 SWAP5 AND DUP5 MSTORE DUP4 DUP2 MSTORE PUSH1 0x40 SWAP4 DUP5 SWAP1 KECCAK256 DUP3 MLOAD DUP2 SSTORE SWAP1 DUP3 ADD MLOAD PUSH1 0x1 DUP3 ADD SSTORE SWAP3 ADD MLOAD PUSH1 0x2 SWAP1 SWAP3 ADD DUP1 SLOAD PUSH1 0xFF NOT AND SWAP3 ISZERO ISZERO SWAP3 SWAP1 SWAP3 OR SWAP1 SWAP2 SSTORE POP JUMP JUMPDEST DUP1 CALLDATALOAD PUSH1 0x1 PUSH1 0x1 PUSH1 0xA0 SHL SUB DUP2 AND DUP2 EQ PUSH2 0x4AF JUMPI PUSH1 0x0 DUP1 REVERT JUMPDEST SWAP2 SWAP1 POP JUMP JUMPDEST PUSH1 0x0 PUSH1 0x20 DUP3 DUP5 SUB SLT ISZERO PUSH2 0x4C6 JUMPI PUSH1 0x0 DUP1 REVERT JUMPDEST PUSH2 0x4CF DUP3 PUSH2 0x498 JUMP JUMPDEST SWAP4 SWAP3 POP POP POP JUMP JUMPDEST PUSH1 0x0 PUSH1 0x20 DUP3 DUP5 SUB SLT ISZERO PUSH2 0x4E8 JUMPI PUSH1 0x0 DUP1 REVERT JUMPDEST POP CALLDATALOAD SWAP2 SWAP1 POP JUMP JUMPDEST PUSH1 0x0 DUP1 PUSH1 0x40 DUP4 DUP6 SUB SLT ISZERO PUSH2 0x502 JUMPI PUSH1 0x0 DUP1 REVERT JUMPDEST PUSH2 0x50B DUP4 PUSH2 0x498 JUMP JUMPDEST SWAP5 PUSH1 0x20 SWAP4 SWAP1 SWAP4 ADD CALLDATALOAD SWAP4 POP POP POP JUMP JUMPDEST PUSH4 0x4E487B71 PUSH1 0xE0 SHL PUSH1 0x0 MSTORE PUSH1 0x11 PUSH1 0x4 MSTORE PUSH1 0x24 PUSH1 0x0 REVERT JUMPDEST PUSH1 0x0 DUP3 DUP3 LT ISZERO PUSH2 0x541 JUMPI PUSH2 0x541 PUSH2 0x519 JUMP JUMPDEST POP SUB SWAP1 JUMP JUMPDEST PUSH1 0x0 DUP3 NOT DUP3 GT ISZERO PUSH2 0x559 JUMPI PUSH2 0x559 PUSH2 0x519 JUMP JUMPDEST POP ADD SWAP1 JUMP INVALID LOG2 PUSH5 0x6970667358 0x22 SLT KECCAK256 0xBB PUSH29 0x3AAA7FBEF552FD6E6267DD3F2C3291C1A18271C869C5346A6CDF7758CE 0xF7 PUSH5 0x736F6C6343 STOP ADDMOD EXP STOP CALLER ",
  "sha1": "502558b2f6da8fee661eb49620f82a29b4a72df3",
  "source": "// SPDX-License-Identifier: MIT\n\npragma solidity ^0.8.0;\n\ncontract Trust {\n    struct Beneficiary {\n        uint256 amount;\n        uint256 releaseDate;\n        bool paid;\n    }\n    mapping(address => Beneficiary) public beneficiaries;\n    address public grantor;\n\n    constructor() {\n        grantor = msg.sender;\n    }\n\n    function addBeneficiary(address beneficiary, uint256 timeUntilRelease)\n        external\n        payable\n    {\n        require(\n            msg.sender == grantor,\n            \"Only the grantor of this trust can add a beneficiary!\"\n        );\n        require(\n            beneficiaries[beneficiary].amount == 0,\n            \"You've already added this beneficiary...use a different address!\"\n        );\n        beneficiaries[beneficiary] = Beneficiary(\n            msg.value,\n            block.timestamp + timeUntilRelease,\n            false\n        );\n    }\n\n    function withdrawFunds(uint256 _amount) external {\n        Beneficiary storage beneficiary = beneficiaries[msg.sender];\n        require(\n            beneficiary.releaseDate <= block.timestamp,\n            \"You can't withdraw until your release date.\"\n        );\n        require(\n            beneficiary.amount > _amount,\n            \"You can't withdraw more than your remaining balance.\"\n        );\n        require(\n            beneficiary.amount > 0,\n            \"The amount to withraw cannot be zero.\"\n        );\n        require(\n            beneficiary.paid == false,\n            \"You've already withdrew your funds!\"\n        );\n        beneficiary.amount -= _amount;\n        if (beneficiary.amount <= 0) {\n            beneficiary.paid = true;\n        } else {\n            beneficiary.paid = false;\n        }\n\n        payable(msg.sender).transfer(beneficiary.amount);\n    }\n}\n",
  "sourcePath": "contracts/Trust.sol",
  "type": "contract"
}